:100000000C949F030C94C7030C94C7030C94C70370
:100010000C94C7030C94C7030C94C7030C94C70338
:100020000C94C7030C94C7030C949A070C9409080A
:100030000C94C7030C94C7030C94C7030C94C70318
:100040000C94C7030C94C7030C94C7030C94C70308
:100050000C94C7030C94C7030C94C7030C943B0A7D
:100060000C94C7030C94C7030C94C7030C94C703E8
:100070000C94C7030C94C7030C94C7030C94C703D8
:100080000C94C7030C94C7030C94C7030C94C703C8
:100090000C94C7030C94C7030C94C7030C94C703B8
:1000A0000C94C7030C94C7030C94C70307060504FC
:1000B0000100080A0B0C0D0900000000003E5B4F18
:1000C0005B3E3E6B4F6B3E1C3E7C3E1C183C7E3CB8
:1000D000181C577D571C1C5E7F5E1C00183C1800C6
:1000E000FFE7C3E7FF0018241800FFE7DBE7FF3056
:1000F000483A060E2629792926407F050507407FC4
:1001000005253F5A3CE73C5A7F3E1C1C08081C1C36
:100110003E7F14227F22145F5F005F5F06097F012C
:100120007F006689956A606060606094A2FFA29417
:1001300008047E040810207E201008082A1C0808E5
:100140001C2A08081E101010100C1E0C1E0C303833
:100150003E3830060E3E0E06000000000000005F34
:1001600000000007000700147F147F14242A7F2A50
:100170001223130864623649562050000807030012
:10018000001C2241000041221C002A1C7F1C2A085E
:10019000083E0808008070300008080808080000C1
:1001A00060600020100804023E5149453E00427F35
:1001B000400072494949462141494D331814127F84
:1001C0001027454545393C4A494931412111090724
:1001D0003649494936464949291E000014000000A5
:1001E0004034000000081422411414141414004177
:1001F00022140802015909063E415D594E7C121134
:10020000127C7F494949363E414141227F4141416B
:100210003E7F494949417F090909013E41415173E6
:100220007F0808087F00417F41002040413F017F57
:10023000081422417F404040407F021C027F7F041F
:1002400008107F3E4141413E7F090909063E415168
:10025000215E7F09192946264949493203017F0158
:10026000033F4040403F1F2040201F3F4038403F59
:10027000631408146303047804036159494D43006F
:100280007F4141410204081020004141417F0402A6
:10029000010204404040404000030708002054543D
:1002A00078407F284444383844444428384444281B
:1002B0007F385454541800087E090218A4A49C786E
:1002C0007F0804047800447D40002040403D007FCA
:1002D0001028440000417F40007C047804787C08AA
:1002E0000404783844444438FC182424181824247E
:1002F00018FC7C08040408485454542404043F4463
:10030000243C4040207C1C2040201C3C4030403C91
:1003100044281028444C9090907C4464544C4400F1
:100320000836410000007700000041360800020155
:100330000204023C2623263C1EA1A161123A404041
:10034000207A3854545559215555794121545478BF
:1003500041215554784020545579400C1E52721258
:1003600039555555593954545459395554545800E0
:1003700000457C410002457D420001457C40F0295A
:100380002429F0F0282528F07C54554500205454A9
:100390007C547C0A097F49324949493232484848ED
:1003A00032324A4848303A4141217A3A4240207834
:1003B000009DA0A07D39444444393D4040403D3C2F
:1003C00024FF2424487E4943662B2FFC2F2BFF0952
:1003D00029F620C0887E0903205454794100004446
:1003E0007D413048484A32384040227A007A0A0A31
:1003F000727D0D19317D2629292F282629292926A4
:1004000030484D4020380808080808080808382FE8
:1004100010C8ACBA2F102834FA00007B0000081472
:100420002A142222142A14089500220095AA0055A5
:1004300000AAAA55AA55AA000000FF00101010FF3C
:1004400000141414FF001010FF00FF1010F010F043
:10045000141414FC001414F700FF0000FF00FF1434
:1004600014F404FC141417101F10101F101F141480
:10047000141F00101010F0000000001F10101010CA
:100480001F10101010F010000000FF1010101010BE
:1004900010101010FF10000000FF140000FF00FFFC
:1004A00000001F10170000FC04F414141710171498
:1004B00014F404F40000FF00F714141414141414BA
:1004C000F700F7141414171410101F101F1414142D
:1004D000F4141010F010F000001F101F0000001F97
:1004E00014000000FC140000F010F01010FF10FFCA
:1004F000141414FF141010101F00000000F010FF5F
:10050000FFFFFFFFF0F0F0F0F0FFFFFF0000000042
:1005100000FFFF0F0F0F0F0F38444438447C2A2A86
:100520003E147E02020606027E027E0263554941A7
:10053000633844443C04407E201E2006027E0202B2
:1005400099A5E7A5991C2A492A1C4C7201724C30C6
:100550004A4D4D303048784830BC625A463D3E499D
:100560004949007E0101017E2A2A2A2A2A44445F41
:10057000444440514A444040444A51400000FF0135
:1005800003E080FF000008086B6B08361236243643
:10059000060F090F060000181800000010100030A8
:1005A00040FF0101001F01011E00191D1712003C30
:1005B0003C3C3C0000000000080B0002020200006E
:1005C00009040000010202000005240010010524B6
:1005D0000101010424020605240600010705810328
:1005E00010004009040100020A0000000705020291
:1005F00040000007058302400000040309041201C3
:100600000002EF0201404123368000010102030194
:1006100041726475696E6F204C4C43004172647581
:10062000626F7900F0F89C8E8783878E9CF8F000CB
:1006300000FEFF0303030303070EFCF80000FEFFA8
:100640000303030303070EFCF80000FFFF00000094
:1006500000000000FFFF0000FEFF8383838383C749
:10066000EE7C380000F8FC0E07030303070EFCF8CD
:1006700000003F7FE0C08080C0E07F3FFFFF0101BE
:100680000101010101FFFF0000FFFF0C0C0C0C1C1D
:100690003E77E3C100007FFFC0C0C0C0C0E0703F34
:1006A0001F00001F3F70E0C0C0C0E0703F1F00008F
:1006B0007FFFC1C1C1C1C1E3773E1C00001F3F7075
:1006C000E0C0C0C0E0703F1F000000000001FFFF5D
:1006D00001000000D5F08D14A1C881CFD9F1AF2061
:1006E0000000000000250028002B002E0031000033
:1006F000000000240027002A002D0030000404041C
:1007000004040304050202020204030202020206B8
:100710000606060606040402020204040408020196
:10072000104080401020408040800802040180403A
:10073000201002011080102040402000FD0A1124EA
:100740001FBECFEFDAE0DEBFCDBF11E0A0E0B1E029
:10075000E2E8F1E202C005900D92AC33B107D9F79F
:1007600026E0ACE3B1E001C01D92AB3CB207E1F77B
:1007700013E0CFE9D3E004C02197FE010E94B91035
:10078000CE39D107C9F70E942E0B0C94BF100C94E0
:100790000000CF93DF9390E0FC01E45EF84F2491DA
:1007A0008350994FFC0184918823C1F090E0880F19
:1007B000991FFC01E151F94FC591D491FC01EF5112
:1007C000F94FA591B4919FB7F8948881E22FE095F5
:1007D0008E2388838C91E823EC939FBFDF91CF9188
:1007E0000895E4E6F2E0A0E0B8E000800EBC8111DC
:1007F000012C1197A0FDFDCF0192B9F70DB408951A
:10080000FC0180916302882311F13FB7F89482E0E4
:100810008093E9002091F200822F90E018161906CB
:1008200014F481E090E0882339F0289844E640935E
:1008300062024091F1004083222339F02091F200BE
:10084000211103C02BE62093E8003FBF08958FEFEE
:100850009FEF08952FB7F89483E08093E90090917B
:10086000E800892F807295FF04C09091F20080E427
:10087000891B2FBF089580915A0281110DC082E01B
:100880008093560284E0809357021092590210928E
:10089000580281E080935A0286E592E00895089517
:1008A00040914A0150914B012091480130914901FA
:1008B00042175307B4F49091E8009570E1F39091DA
:1008C000E80092FD19C08093F10080914A01909157
:1008D0004B0101968F739927892B19F48EEF809322
:1008E000E80080914A0190914B01019690934B0151
:1008F00080934A0181E0089580E00895DF92EF92AD
:10090000FF920F931F93CF93DF93D82E8A01EB01B1
:100910007B01E40EF51ECE15DF0559F0D7FE12C09F
:10092000FE0184910E94500421968111F4CF0FEFB3
:100930001FEFC801DF91CF911F910F91FF90EF90B2
:10094000DF9008958881EECF0F931F93CF93DF93AD
:100950001F92CDB7DEB782E0898342E450E068EBB6
:1009600075E080E80E947E040E943B04DC01129640
:100970000D911C910115110589F0D801ED91FC91A3
:100980000280F381E02DBE016F5F7F4FC8010995A2
:1009900097FD04C0F80100851185ECCF89810F9087
:1009A000DF91CF911F910F910895615030F0209108
:1009B000F100FC0120830196F8CF289884E680930B
:1009C00062020895AF92BF92CF92DF92EF92FF92B0
:1009D0000F931F93CF93DF936C017B018B01040F67
:1009E000151FEB015E01AE18BF08C017D10759F003
:1009F0006991D601ED91FC910190F081E02DC60145
:100A00000995892B79F7C501DF91CF911F910F913E
:100A1000FF90EF90DF90CF90BF90AF900895CF936D
:100A2000DF931F92CDB7DEB76983DC01ED91FC91B6
:100A30000280F381E02D41E050E0BE016F5F7F4F07
:100A400009950F90DF91CF91089583E08093E9009D
:100A50008091F200882319F08AE38093E8000895DA
:100A60000E942A0490E00895CF93DF931F92CDB7A0
:100A7000DEB7FC018485958597FD08C02FEF3FEF19
:100A8000358724870F90DF91CF910895CE0101968D
:100A90000E940004019719F4898190E0F3CF8FEF51
:100AA0009FEFF0CF0F931F93CF93DF931F92CDB79C
:100AB000DEB78C01FC018485958597FF0BC0CE01C4
:100AC00001960E940004019771F4898190E0F80179
:100AD00095878487F801848595850F90DF91CF9164
:100AE0001F910F9108958FEF9FEFF1CFFC01848547
:100AF000958597FD0BC09FB7F89482E08093E9003D
:100B00008091F2009FBF90E0019608959FB7F894FE
:100B100082E08093E9008091F2009FBF90E0089509
:100B2000FC010E942706319728F068517C4F8F4FB7
:100B30009F4FF9CFAB01FC010E9427066417750790
:100B40008E079F07C8F308958F929F92AF92BF922E
:100B5000CF92DF92EF92FF920F931F93CF93DF9389
:100B60006C017B018A0180910B01882309F45AC032
:100B700080916302882309F455C080914E0180FF63
:100B800005C08091E00082608093E000E801B12C14
:100B90008AEFA82E93E0892E2AE3922E209711F453
:100BA000BB20C9F10E942A04811108C0AA94AA207E
:100BB000C9F181E090E00E949005F0CF8C171D06EE
:100BC00011F00CF08C2F9FB7F8948092E9002091DF
:100BD000E80025FD02C09FBFE1CF282F30E0C21BF7
:100BE000D30BF701815020F041914093F100FACFEF
:100BF000E20EF31EBB2021F09092E800B12CEBCF67
:100C00008091E80085FDE7CF9092E800BB24B39483
:100C1000209709F3F3CF5D9884E680934D01101679
:100C200011063CF081E090E0F6019383828310E0AE
:100C300000E0C801DF91CF911F910F91FF90EF90DD
:100C4000DF90CF90BF90AF909F908F900895A4E4D5
:100C5000B1E02FB7F8947D918D919C9166B52FBF2F
:100C6000A89B05C06F3F18F47F5F8F4F9F4F22E016
:100C7000660F771F881F991F2A95D1F708952D9A1F
:100C8000089590E00C9490058FB18095807F669BCD
:100C900088601C9B8460089580389105B8F46034A6
:100CA0007105A0F490E121E061FD24E060FD220FD8
:100CB00062FD2295687F969FD0011124A80FAC5940
:100CC000BD4F0C90022A40FF02260C9208952F92ED
:100CD0003F924F925F926F927F928F929F92AF92CC
:100CE000BF92CF92DF92EF92FF920F931F93CF9319
:100CF000DF93CDB7DEB72A970FB6F894DEBF0FBEED
:100D0000CDBF9A8389836A3061F5DC0155968C9159
:100D1000B8E08B9F90011124E981FA818189928941
:100D2000820F931F928B818B108A178681E090E04F
:100D30002A960FB6F894DEBF0FBECDBFDF91CF91DC
:100D40001F910F91FF90EF90DF90CF90BF90AF90E9
:100D50009F908F907F906F905F904F903F902F90DB
:100D600008956D3019F329813A813A872987D9018D
:100D70001F96AD90BC90B0E8AB16B1040CF07BC0F0
:100D8000F901C188D288F0E4CF16D1040CF073C009
:100D9000D90155966C90559745E09501649E200DBC
:100DA000311D1124121613060CF065C0262C312CAF
:100DB000910153E0220F331F5A95E1F72C0D3D1D91
:100DC000121613060CF057C05496BC91BB83E985EC
:100DD000FA85F389FC83649FB00111249B01285498
:100DE0003F4F3A832983712CE981FA818491F5E0A0
:100DF0007F1201C080E0460138E0532E282F30E0FA
:100E00003E832D834C8080FF4B80411004C03B818A
:100E10008C813817E1F010E000E00615C0F4D50130
:100E2000A00FB11FB887AF83F12CE12CE61460F45A
:100E3000B701680D791D442D8F8198850E944C065D
:100E4000BFEFEB1AFB0AF2CF0F5F1F4FE6CF8D818A
:100E50009E81959587955A94820C931C5110CECF04
:100E60007394E981FA813196FA83E983A20CB31C69
:100E7000F6E07F12B9CFA985BA8555962C91559782
:100E8000422F50E01F968D919C91B6E02B9F800DD4
:100E9000911D1124E985FA85908B87872689222365
:100EA00009F444CF6AEF64039001659F300D11246B
:100EB00020583F4F281739070CF038CFDF01019039
:100EC000F081E02D0190F081E02D6AE0CD010995DF
:100ED0002DCF0895089590E080E0089580916400FA
:100EE0008E7F80936400E1EBF0E0E49190917B00D1
:100EF0008E2F880F880F80729F7D892B80937B00B7
:100F0000E770E064E0937C0080917A0080648093D5
:100F10007A0080917A0086FDFCCF80917800209144
:100F2000790090916400916090936400922F0895ED
:100F30000C943F0E1F920F920FB60F9211248F93B5
:100F40009F938091E1009091E100937F9093E10065
:100F500083FF0FC01092E90091E09093EB00109294
:100F6000EC0092E39093ED001092630298E090936E
:100F7000F00082FF22C093E09093E9009091F2008C
:100F8000992319F09AE39093E80090914D019923E9
:100F900041F090914D01915090934D01911101C0FC
:100FA0005D9A90916202992341F090916202915072
:100FB00090936202911101C0289A84FF18C0809119
:100FC000E2008E7E81608093E2008091E1008F7E5E
:100FD0008093E10080914E018E7E806180934E016E
:100FE0009F918F910F900FBE0F901F90189580FFCB
:100FF000F7CF8091E2008E7E80618093E200809145
:10100000E1008E7E8093E10080914E018E7E8160B2
:10101000E5CF1F920F920FB60F921124CF92DF925D
:10102000EF92FF920F931F932F933F934F935F93F2
:101030006F937F938F939F93AF93BF93EF93FF93A0
:10104000CF93DF93CDB7DEB76C97DEBFCDBF1092E5
:10105000E9008091E80083FF25C068E0CE01459655
:101060000E94D50482EF8093E8008D8987FF39C004
:101070009091E80090FFFCCF982F907609F034C152
:101080009E894F89588D2F89F88C911131C08038F5
:1010900061F580914F018093F1001092F1008EEF85
:1010A0008093E8006C960FB6F894DEBF0FBECDBFFC
:1010B000DF91CF91FF91EF91BF91AF919F918F9170
:1010C0007F916F915F914F913F912F911F910F9160
:1010D000FF90EF90DF90CF900F900FBE0F901F907A
:1010E00018959EEF9093E800C7CF1092F100D5CFEE
:1010F000913059F48111D3CF4130510581F680915F
:101100004F018D7F80934F01CACF933049F48111F5
:10111000C6CF4130510519F680914F018260F2CF60
:10112000953041F48091E80080FFFCCF2068209347
:10113000E300B5CF963009F0A9C00B8D1C8D22E0DD
:101140001092E90010924B0110924A01F2122EC047
:1011500010924901109248010E94A4041F8299E054
:101160009983FA8291E09E8390EA98879AEF998713
:1011700020914A0130914B01275F3F4F3C832B83E5
:101180008D831092E90010924B0110924A01109346
:1011900049010093480149E050E0BE016F5F7F4F75
:1011A00080E00E947E040E94A40479CF109349013C
:1011B000009348010E943B04DC0112960D911C91A2
:1011C0000115110509F451C1D801ED91FC9104807C
:1011D000F581E02DBE016B5E7F4FC8010995009738
:1011E00009F03EC1F80100851185EACFF3E0FF1256
:1011F0000EC08F89882309F440C0823061F440E832
:1012000067E08CE196E00E94850A811148CF81E277
:101210008093EB0047CF813029F440E86BE080E118
:1012200096E0F1CF833099F70E943B04DC011296DF
:10123000ED90FC908E010F5F1F4F6801E114F104E7
:1012400079F0D701ED91FC910680F781E02DB8018E
:10125000C7010995080F111DF701E084F184EECF55
:10126000D8011C92F60101900020E9F73197BF01E7
:101270006C197D0940E0C601C6CF6AEF75E0FB013D
:10128000449150E080E80E947E0409CF973009F431
:10129000BECF983021F481E08093F10000CF9930E7
:1012A00009F0FDCE837009F0B2CFEDE0F1E081E00E
:1012B00031E096E32191222371F08093E90030938D
:1012C000EB00DF0111972C912093EC009093ED003F
:1012D0008F5F873079F78EE78093EA001092EA00FB
:1012E0008F8980936302DBCE8B8D9C8D1092E900F9
:1012F00010924B0110924A0190934901809348014A
:10130000898D811192C08E899D89913A49F48132EB
:1013100009F07DCF47E050E064E071E080E0B3CFBA
:10132000913209F074CF833269F48F89988DB0E0DF
:10133000A0E08093000190930101A0930201B0937B
:101340000301ADCE803269F48091E80082FFFCCFCA
:1013500067E084E091E00E94D5048BEF8093E80081
:101360009ECE823209F09BCE8F8980930B01EEEFE7
:10137000FFE7859194918B3F9C4D51F1E0E0F8E0BF
:101380008091040190910501A0910601B09107019F
:10139000803B9440A105B105F1F480910B0180FDE3
:1013A0001AC0EE3F8AE0F80789F587E797E791834F
:1013B00080838091600080934C0188E19BE00FB6B0
:1013C000F894A895809360000FBE9093600067CE5C
:1013D000EEEFFAE0D5CF808191818737974709F00A
:1013E0005ECEA895809160008861809360008091B6
:1013F0004C0180936000EE3F2AE0F20789F0809173
:10140000FE0A9091FF0A9183808349CE8081918169
:101410008737980751F29093FF0A8093FE0AC5CF51
:101420001092FF0A1092FE0A3ACE0E943B04DC01A1
:1014300012960D911C910115110509F4E8CED80101
:10144000ED91FC910190F081E02DBE016B5E7F4F2C
:10145000C8010995811123CEF80100851185EBCFD4
:10146000181619060CF41BCED2CEF1E0FF12BECE38
:101470006EEF75E004CF0F920FB68F939F93EF93AB
:10148000FF93809143018D5F8D3708F08D578093D6
:101490004301E0E5F1E080818E4F808391819F4F91
:1014A000918382818F4F828383818F4F8383E4E492
:1014B000F1E080818F5F808381818F4F8183828182
:1014C0008F4F828383818F4F83838FB18F60669923
:1014D0001C9B88278F3681F480914201981B96309F
:1014E00068F0E0E0F8E087E78083818388E180931B
:1014F0006000F0936000FFCF90934201FF91EF9165
:101500009F918F910FBE0F901895EF92FF920F93BE
:101510001F93CF93DF93F82E192FE62E042F81E02F
:10152000860F880F0E94500483E00E945004CF2D44
:10153000D12FEC0EFD2EF11CCE15DF05B9F007FF03
:1015400013C0FE0184910E945004182F80E00E9475
:101550005004812321968111EFCFDF91CF911F910C
:101560000F91FF90EF9008958881EDCF81E0F5CF46
:101570000F931F93CF93DF938C0181E090E00E9443
:10158000980780FF32C08AE090E00E9498079FEFA2
:10159000980F9E3F50F522E330E0D80150963C93DF
:1015A0002E931F9728E330E052963C932E93519749
:1015B000CBE0D0E0D801ED91FC910190F081E02DDD
:1015C000682FC8010995CE010E9498072196C13164
:1015D000D10581F780E00E94F10388EE93E0DF916E
:1015E000CF911F910F910C949005DF91CF911F9196
:1015F0000F91089504970C94B80AE4E6F6E013827C
:10160000128288EE93E0A0E0B0E084839583A68305
:10161000B78387E191E0918380838FEF9FEF958778
:101620008487E4EBF6E0138212821186128680E151
:10163000838710861782158689E291E091838083E3
:1016400087E391E095838483108A1786128A118A32
:1016500081E0838B148A858B168A0895CDB7DEB717
:10166000A997DEBFCDBF789483E084BD83E085BDBC
:1016700081E080936E00E1E8F0E083E08083E0E8C1
:1016800081E08083E1E983E08083E0E981E0808399
:10169000E1EC87E08083E3EC81E08083E0EC82E0B2
:1016A0008083E2EC81E08083EAE787E080838068E2
:1016B00080831092630210924F0110924E0180912C
:1016C000D70081608093D70080EA8093D80089B5E5
:1016D000806189BD89B5826089BD09B400FEFDCFF6
:1016E00081E090E00E9490058091D8008F7C80611D
:1016F0008093D8008091E000807F8093E00080910B
:10170000E1008E7E8093E1008DE08093E200559AA7
:10171000209A81EC80937C0081EF85B987EE84B9B3
:1017200082E38BB982EF8AB9769A6E9880EF81BB9B
:1017300010BA80E58CBD81E08DBD85E00E94410638
:101740005F9A85E00E9441065C98E4EDF6E08591A1
:101750008EBD00000DB407FEFDCFE13EC1F75C9ADF
:1017600081E88093640081E0809365000E94F1032A
:101770000E94440687FF15C05C9885EA8EBD000074
:101780000DB407FEFDCF5C9A2E982F982D9880916E
:10179000640080628093640081E083BF889513BEFB
:1017A000FCCF0E94440682FF45C02D980E9444064B
:1017B00084788438D9F40E943F0688EC0E94410660
:1017C0002F9882E090E00E943F0E8F3F29F06FEF4C
:1017D00082E090E00E94470E84EF91E00E94900525
:1017E0002F9A0E94440684788438D9F30E944406D4
:1017F00084718431D9F40E943F0688EC0E9441062E
:101800002E9882E090E00E943F0E882329F060E04D
:1018100082E090E00E94470E84EF91E00E949005E4
:101820002E9A0E94440684718431D9F388EC0E9478
:101830004106B7CF0E943F0682E090E00E949807E1
:10184000882309F467C03E9A3F9A81E090E00E94A5
:101850009807282F2470D22E81FF0CC021112E98BA
:1018600001EF1FEF0E94440686FF57C02E9A2F9A61
:101870000E943F0682E30E9441060E9444068111B5
:10188000F9CF1092C00088E08093C1001092C3008D
:101890001092BF001092CF0082E10E94C90385E13F
:1018A0000E94C90383E10E94C90384E10E94C90325
:1018B0008FEF9FEF90937106809370061092550200
:1018C0001092540284E592E024E531E03BA32AA380
:1018D0002FEF3FEFEAA1FBA121933193FBA3EAA3F2
:1018E0008E179F07B9F7909150018091C006F92F8C
:1018F000F81B8F2F2091C106222309F47EC0F0939C
:10190000C2061092C10620E030E0232B61F30E9452
:101910000000E9CF3E983F9898CFDD2029F00430B1
:10192000110511F42E9A2F9881E00E94F103302FB7
:101930003770C32E980153E0359527955A95E1F7F6
:10194000C9019695982F8827979587958C599D4F13
:1019500050E040E02E3F6FEF360759F1DC01AC5606
:10196000BF4F7C0170E060E0FA01EC5DF94F5F0170
:10197000F501E60FF71FE491F0E03F010C2C02C0E7
:10198000660C771C0A94E2F72F3F320721F0F7012B
:1019900094889628948ACC2019F0EC91E729EC934E
:1019A0006F5F7F4F1196FFEFEF1AFF0A68357105E1
:1019B000F9F62F5F3F4F80589F4F485A5F4F403B8B
:1019C000510541F680E00E94F1038FE00E9441063C
:1019D0000F5F1F4F0931110509F044CFDD2011F0D1
:1019E0002F9A2D9880E991E00E9490050E943F0671
:1019F00084EB96E00E94B80A3DCF3091BF06F31702
:101A000048F48F5F831708F07ECF21E023BF8895CD
:101A100013BE79CF31E03093C1069093C006EBEB53
:101A2000F6E080819181019680839183E4E6F2E083
:101A300021112FEF8FEF2193219321932193815037
:101A4000D0F71092C6061092C5061092C4061092E6
:101A5000C3060E946E0740915402509155025FA345
:101A60004EA38A01000F111F0C5A1E4FDC0121ECFE
:101A70003FEF4FEF5FEF0E94740E2FEF33E040E037
:101A800050E00E94550E215C3F4F4F4F5F4FF801D1
:101A900031832083609154017091550141E090E0C1
:101AA00080E00E944C0624E531E03DA32CA32224D3
:101AB0002394312CECA1FDA1028113810F3F10076B
:101AC00009F46AC0C1010197ECA1FDA1E190F19078
:101AD000FDA3ECA348018E189F0897FE03C09194C4
:101AE000819491086101F2E08F1691043CF4680141
:101AF00081013E2D2F2D7C01832F922F0E151F0566
:101B000054F03C2D2D2D6C01832F922F302F212F3F
:101B10008701E32EF22E2701401A510A3C016C186E
:101B20007D0877FE03C0719461947108520157FEDD
:101B300003C02FEFA21AB20AB594A794C816D9060B
:101B40000CF581E0482F880F550B59A748A7E016E0
:101B5000F106D4F041E0B801C60152E085169104C7
:101B600014F4B601C8010E944C06A618B708B7FEC7
:101B700006C088A599A5C80ED91EA40CB51C0F5F78
:101B80001F4FE5CF8FEFDECF9FEF291A390AE0E82C
:101B90002E16310409F08ECF8EA19FA101968038B8
:101BA00091050CF467C01092550210925402E4E5BE
:101BB000F1E02FEF3FEF219331934AA15BA14E1744
:101BC0005F07B9F70E946E07BC0190E080E00E94B9
:101BD000BE0F6B017C0120E030E040E05FE30E943B
:101BE0004C1020E034E244E757E40E94B10EA70114
:101BF00096010E941D0F0E948F0F6150710950E4E1
:101C00005093C0007093BF006093D1000E946E0794
:101C10009C0150E040E019A28E010F5D1F4FCA01E8
:101C2000B9012AE030E040E050E00E947F0E605DA4
:101C3000F80162938F01211531054105510579F7AE
:101C4000309761F001900020E9F73197AF01401B18
:101C5000510BB80184E696E00E94A40542E050E0F2
:101C600069E371E084E696E00E94A40580E00E94AA
:101C7000F10349CE9093550280935402A3CFF99972
:101C8000FECF92BD81BDF89A992780B50895262F81
:101C9000F999FECF1FBA92BD81BD20BD0FB6F89451
:101CA000FA9AF99A0FBE01960895052E97FB1EF435
:101CB00000940E946C0E57FD07D00E947F0E07FC17
:101CC00003D04EF40C946C0E5095409530952195B0
:101CD0003F4F4F4F5F4F0895909580957095619558
:101CE0007F4F8F4F9F4F08950E94A10EA59F900D8B
:101CF000B49F900DA49F800D911D11240895A1E221
:101D00001A2EAA1BBB1BFD010DC0AA1FBB1FEE1F75
:101D1000FF1FA217B307E407F50720F0A21BB30BC0
:101D2000E40BF50B661F771F881F991F1A9469F73C
:101D300060957095809590959B01AC01BD01CF0198
:101D40000895A29FB001B39FC001A39F700D811D94
:101D50001124911DB29F700D811D1124911D0895B4
:101D60005058BB27AA270E94C80E0C9412100E943C
:101D7000041038F00E940B1020F039F49F3F19F442
:101D800026F40C9401100EF4E095E7FB0C94FB0F85
:101D9000E92F0E94231058F3BA17620773078407CC
:101DA000950720F079F4A6F50C9445100EF4E09513
:101DB0000B2EBA2FA02D0B01B90190010C01CA0105
:101DC000A0011124FF27591B99F0593F50F4503EB0
:101DD00068F11A16F040A22F232F342F4427585FA2
:101DE000F3CF469537952795A795F0405395C9F7BA
:101DF0007EF41F16BA0B620B730B840BBAF0915072
:101E0000A1F0FF0FBB1F661F771F881FC2F70EC010
:101E1000BA0F621F731F841F48F4879577956795E3
:101E2000B795F7959E3F08F0B0CF9395880F08F0CF
:101E30009927EE0F9795879508950E94310F0C947E
:101E400012100E940B1058F00E94041040F029F468
:101E50005F3F29F00C94FB0F51110C9446100C9429
:101E600001100E94231068F39923B1F3552391F3D5
:101E7000951B550BBB27AA2762177307840738F0F9
:101E80009F5F5F4F220F331F441FAA1FA9F335D056
:101E90000E2E3AF0E0E832D091505040E695001C0A
:101EA000CAF72BD0FE2F29D0660F771F881FBB1FC4
:101EB000261737074807AB07B0E809F0BB0B802DA2
:101EC000BF01FF2793585F4F3AF09E3F510578F0CE
:101ED0000C94FB0F0C9446105F3FE4F3983ED4F350
:101EE000869577956795B795F7959F5FC9F7880FA2
:101EF000911D9695879597F90895E1E0660F771FF4
:101F0000881FBB1F621773078407BA0720F0621B84
:101F1000730B840BBA0BEE1F88F7E09508950E94AF
:101F20002B1088F09F5798F0B92F9927B751B0F030
:101F3000E1F0660F771F881F991F1AF0BA95C9F74D
:101F400014C0B13091F00E944510B1E008950C9496
:101F50004510672F782F8827B85F39F0B93FCCF349
:101F6000869577956795B395D9F73EF490958095CA
:101F7000709561957F4F8F4F9F4F0895E89409C0EA
:101F800097FB3EF490958095709561957F4F8F4FAC
:101F90009F4F9923A9F0F92F96E9BB279395F695C2
:101FA000879577956795B795F111F8CFFAF4BB0F40
:101FB00011F460FF1BC06F5F7F4F8F4F9F4F16C0A4
:101FC000882311F096E911C0772321F09EE8872F2E
:101FD000762F05C0662371F096E8862F70E060E0EA
:101FE0002AF09A95660F771F881FDAF7880F969563
:101FF000879597F9089597F99F6780E870E060E00A
:1020000008959FEF80EC089500240A941616170691
:1020100018060906089500240A94121613061406D9
:1020200005060895092E0394000C11F4882352F03C
:10203000BB0F40F4BF2B11F460FF04C06F5F7F4FF4
:102040008F4F9F4F089557FD9058440F551F59F0DB
:102050005F3F71F04795880F97FB991F61F09F3F95
:1020600079F087950895121613061406551FF2CFBE
:102070004695F1DF08C0161617061806991FF1CF0E
:1020800086957105610508940895E894BB27662735
:102090007727CB0197F908950E945F100C941210D6
:1020A0000E94041038F00E940B1020F0952311F0CC
:1020B0000C94FB0F0C94011011240C9446100E94F8
:1020C000231070F3959FC1F3950F50E0551F629F49
:1020D000F001729FBB27F00DB11D639FAA27F00D81
:1020E000B11DAA1F649F6627B00DA11D661F829FA8
:1020F0002227B00DA11D621F739FB00DA11D621F8D
:10210000839FA00D611D221F749F3327A00D611DA9
:10211000231F849F600D211D822F762F6A2F11248B
:102120009F5750409AF0F1F088234AF0EE0FFF1FBE
:10213000BB1F661F771F881F91505040A9F79E3F15
:10214000510580F00C94FB0F0C9446105F3FE4F3B4
:10215000983ED4F3869577956795B795F795E7956B
:102160009F5FC1F7FE2B880F911D9695879597F974
:102170000895EE0FFF1F0590F491E02D0994F89457
:02218000FFCF8F
:10218200FFFFFFFF00E100000000000000C18081AE
:10219200000000000000000F05A4053005250576AB
:1021A2000534055205000000006706E2046B076A69
:0C21B20007B80AFCFF0000FA0A0D0A0042
:00000001FF
